:100000000C9424010C9445010C9445010C94450179
:100010000C9445010C9445010C9445010C94450148
:100020000C9445010C9445010C9445010C94450138
:100030000C9445010C9445010C9445010C94450128
:100040000C9445010C9445010C9445010C94450118
:100050000C9445010C9445010C9445010C945403F7
:100060000C9445010C9445010C9445010C944501F8
:100070000C9445010C9445010C9445010C944501E8
:100080000C9445010C9445010C9445010C944501D8
:100090000C9445010C9445010C9445010C944501C8
:1000A0000C9445010C9445010C9445010C944501B8
:1000B0000C9445010C9445010C9445010C944501A8
:1000C0000C9445010C9445010C9445010C94450198
:1000D0000C9445010C9445010C9445010C94450188
:1000E0000C9445010C947A010C94A5010C948001A8
:1000F0000C946F010C94A0010C94AA010C948E0135
:100100000C94A6010C9498010C9465010C949C012C
:100110000C9473010C9484010C946B010C948A016F
:100120000C9477010C94920100002000230026001B
:1001300029002C002F0032000001000003010601FD
:10014000090100002100240027002A002D003000B2
:10015000330001010000040107010A010000220030
:10016000250028002B002E00310034000201000081
:10017000050108010B010505050507050808080824
:10018000020202020A0A080804040404010101012F
:10019000010101010303030303030303040707072A
:1001A0000C0C0C0C0C0C0C0C0202020206060606CF
:1001B000060606060B0B0B0B0B0B0B0B010210209C
:1001C000200808102040102040800201020108048D
:1001D0000201010204081020408080402010080421
:1001E000020180040201804020100804020108047A
:1001F00002010102040810204080010204081020BE
:10020000408000000A0B02090C0D0E0807030401D0
:1002100000000000000000000000000000000000DE
:1002200000000000000000000000000000001211AB
:1002300010000000000000000000000000000000AE
:10024000000000000000000011241FBECFEFD1E22B
:10025000DEBFCDBF00E00CBF12E0A0E0B2E0EAE9F3
:10026000F0E100E00BBF02C007900D92AA35B10784
:10027000D9F722E0AAE5B2E001C01D92AC37B2077F
:10028000E1F70E949E030C944B080C9400008150EF
:10029000823108F05AC0E82FF0E08827ED5AFE4F6F
:1002A0008F4F0C940D087301770165016B016F018D
:1002B000A5017A01800184018A018E0192019801D1
:1002C0009C01A501A001A601AA01809180008F7761
:1002D000809380000895809180008F7DF9CF809178
:1002E0008000877FF5CF84B58F7784BD089584B56E
:1002F0008F7DFBCF8091B0008F778093B000089501
:100300008091B0008F7DF9CF809190008F7780939E
:1003100090000895809190008F7DF9CF809190009A
:10032000877FF5CF8091A0008F778093A0000895FC
:100330008091A0008F7DF9CF8091A000877FF5CFBD
:10034000809120018F778093200108958091200172
:100350008F7DF9CF80912001877FF5CF1F93CF93B9
:10036000DF93282F30E0F901EE5FFD4F8491F90112
:10037000E454FE4FD491F901EA58FE4FC491CC23C6
:10038000A9F0162F81110E944701EC2FF0E0EE0F2B
:10039000FF1FE45AFE4FA591B4918FB7F894EC91EA
:1003A000111108C0D095DE23DC938FBFDF91CF9170
:1003B0001F910895DE2BF8CFCF93DF9390E0FC01DF
:1003C000E454FE4F24918A589E4FFC018491882367
:1003D000D1F090E0880F991FFC01EE5BFE4FA591D4
:1003E000B491FC01E45AFE4FC591D491623071F48E
:1003F0009FB7F8943C91822F809583238C93E8815A
:100400002E2B28839FBFDF91CF9108958FB7F8944B
:10041000EC912E2B2C938FBFF6CF3FB7F8948091A1
:10042000780290917902A0917A02B0917B0226B570
:10043000A89B05C02F3F19F00196A11DB11D3FBF1C
:10044000BA2FA92F982F8827BC01CD01620F711DEB
:10045000811D911D42E0660F771F881F991F4A95E5
:10046000D1F708958F929F92AF92BF92CF92DF9271
:10047000EF92FF924B015C010E940D026B017C0127
:100480000E940D026C197D098E099F09683E734018
:1004900081059105A8F321E0821A9108A108B1080D
:1004A00088EEC80E83E0D81EE11CF11C8114910473
:1004B000A104B10429F7FF90EF90DF90CF90BF9097
:1004C000AF909F908F900895CF93DF939C01FC0194
:1004D000EE5FFD4F8491F901E454FE4FD491F90190
:1004E000EA58FE4FC491CC23C9F081110E94470104
:1004F000EC2FF0E0EE0FFF1FE85DFE4FA591B491E9
:10050000EC91ED2331E020E009F430E0832F922FCD
:1005100021E082278170DF91CF91089590E080E003
:10052000F7CFEF92FF920F931F93CF93DF937C014E
:100530008B01D0E0C0E0F80180810E5F1F4FB70152
:100540000C2E02C0759567950A94E2F761700E94BF
:10055000AE012196C430D10571F7DF91CF911F9183
:100560000F91FF90EF900895EF92FF920F931F93DA
:10057000CF93DF93C0916F02CC2309F452C068E29D
:1005800072E08FE090E00E94910260E272E08FE002
:1005900090E00E94910280916402882369F080912A
:1005A0006302C0913402882339F02FE030E09FE0ED
:1005B000E92EF12CCC2361F080916A0290916B02BC
:1005C0006AE070E00E94DA077B019C01CC2321F1F4
:1005D00080916C0290916D026AE070E00E94DA07EF
:1005E000EB018C0168E172E0C9010E94910260E1B7
:1005F00072E0C7010E94910268E072E0C8010E94A7
:10060000910260E072E0CE01DF91CF911F910F91D6
:10061000FF90EF900C9491020FE010E0CFE0D0E05B
:10062000E1CF80913702909138026AE070E00E9439
:10063000DA07EB0168E272E00E94910260E272E088
:10064000CE010E94910280916E02882359F180911F
:10065000620220913002882339F0EFE0F0E08FE071
:10066000E82EF12C222381F08091390290913A02F8
:100670006AE070E00E94DA077B01FC010FE010E005
:10068000CFE0D0E0222351F080913B0290913C02D8
:100690006AE070E00E94DA07EB018C0168E172E029
:1006A000CF01A3CF21E0E0CF1F920F920FB60F92A0
:1006B00011242F933F938F939F93AF93BF93809178
:1006C000740290917502A0917602B09177023091F8
:1006D000730223E0230F2D3758F50196A11DB11D9C
:1006E000209373028093740290937502A093760214
:1006F000B09377028091780290917902A0917A026A
:10070000B0917B020196A11DB11D80937802909358
:100710007902A0937A02B0937B02BF91AF919F912F
:100720008F913F912F910F900FBE0F901F901895B2
:1007300026E8230F0296A11DB11DD2CFCF93DF93E0
:10074000CDB7DEB760970FB6F894DEBF0FBECDBF52
:10075000789484B5826084BD84B5816084BD85B59C
:10076000826085BD85B5816085BD80916E008160A8
:1007700080936E001092810080918100826080934E
:100780008100809181008160809381008091800050
:100790008160809380008091B10084608093B1007B
:1007A0008091B00081608093B00080919100826060
:1007B000809391008091910081608093910080915D
:1007C00090008160809390008091A100826080936E
:1007D000A1008091A10081608093A1008091A00080
:1007E00081608093A000809121018260809321012B
:1007F000809121018160809321018091200181609D
:100800008093200180917A00846080937A008091A7
:100810007A00826080937A0080917A008160809370
:100820007A0080917A00806880937A001092C100EB
:100830008CE0E1E4F2E0DE01119601900D928A95E0
:10084000E1F78E010F5F1F4F6E012DE0C20ED11C2C
:10085000F12CE12CD801ED91FC91EE0DFF1D61E032
:1008600080810E94DC01B2E0EB0EF11CE8E0EE16A4
:10087000F10481F70E5F1F4F0C151D0549F762E06B
:1008800086E30E94DC0162E087E30E94DC0162E013
:1008900088E30E94DC0162E089E30E94DC0162E0FF
:1008A0008DE30E94DC0162E08CE30E94DC0109E53B
:1008B00012E0BDE4EB2EB2E0FB2ED7018C91B2E04A
:1008C000EB0EF11C61E00E94DC010E151F05A9F77B
:1008D00068EE73E080E090E00E9432022FB7F89457
:1008E0008091740290917502A0917602B091770286
:1008F0002FBF80935E0290935F02A0936002B0933B
:10090000610280935A0290935B02A0935C02B093C1
:100910005D020E94B40211E0E6E02E2E312CF8E1D7
:10092000AF2EB12CA0E04A2EA0E05A2E01E08CE3BD
:1009300090E00E946402882379F080914002811146
:100940000BC08091720281278093720264EB70E089
:1009500080E090E00E9432028CE390E00E9464020A
:100960008093400280917202882309F484C07DE460
:10097000C72E72E0D72EF6018081F2E0CF0ED11C97
:1009800060E00E94AE01CE14DF04A9F780907002EF
:1009900090907102F401EE0FFF1FE35BFD4F61E0E9
:1009A00080810E94AE0187E390E00E946402882368
:1009B00099F080913F0281110FC0C4010596B101E9
:1009C0000E94DA07909371028093700264EB70E0EA
:1009D00080E090E00E9432028DE390E00E94640289
:1009E0008823B1F080913E02811112C08091700283
:1009F000909171020196B1010E94DA079093710201
:100A00008093700264EB70E080E090E00E9432021C
:100A100086E390E00E9464028823D9F080913D0231
:100A2000811117C0109272025DE4852E52E0952E5E
:100A3000D4018C91B2E08B0E911C60E00E94AE015B
:100A40008C149D04A9F764EB70E080E090E00E94B4
:100A5000320287E390E00E94640280933F028DE3BC
:100A600090E00E94640280933E0286E390E00E9440
:100A7000640280933D0280916F02811135C08091A4
:100A80006E02811131C020913B0230913C02809175
:100A90006C0290916D022817390731F520913902C7
:100AA00030913A0280916A0290916B0228173907BF
:100AB000D9F48091370290913802892BA9F40093E0
:100AC00069022FB7F8948091740290917502A091F9
:100AD0007602B09177022FBF8093650290936602F1
:100AE000A0936702B0936802809169028823B1F1F4
:100AF0002FB7F8946091740270917502809176021C
:100B0000909177022FBF609065027090660280908E
:100B10006702909068029B01AC01261937094809C9
:100B20005909E0917002F091710221363A4E410567
:100B300051050CF00FC19F01220F331FF901E35B38
:100B4000FD4FD08024EF31E040E050E00E94EE07FE
:100B500061E020FD60E08D2D0E94AE0186E390E013
:100B60000E946402882389F08091360281110DC0B1
:100B700080916F02812780936F021092640264EB70
:100B800070E080E090E00E94320286E390E00E94F4
:100B900064028093360280916F02882309F4FFC0BB
:100BA00087E390E00E946402882389F080913502F7
:100BB00081110DC0809164028127809364020093AB
:100BC000340264EB70E080E090E00E9432028DE33A
:100BD00090E00E946402882399F080913302811191
:100BE0000FC080916402882359F0809163028127AD
:100BF0008093630264EB70E080E090E00E94320238
:100C000088E390E00E946402882301F1809132021F
:100C100081111CC0809164028823C1F0809163021D
:100C2000882309F4A2C080916A0290916B02019618
:100C30006CE370E00E94DA0790936B0280936A0283
:100C400064EB70E080E090E00E94320289E390E083
:100C50000E946402882301F18091310281111CC03D
:100C6000809164028823C1F080916302882309F493
:100C700089C080916A0290916B02CB966CE370E020
:100C80000E94DA0790936B0280936A0264EB70E033
:100C900080E090E00E94320287E390E00E946402CC
:100CA0008093350288E390E00E94640280933202D0
:100CB00089E390E00E946402809331028DE390E02A
:100CC0000E946402809333022FB7F89480917402DB
:100CD00090917502A0917602B09177022FBF20917A
:100CE0006F0221111AC120916E0221113FC1409162
:100CF0005E0250915F026091600270916102841BFC
:100D0000950BA60BB70B883E9340A105B105CCF01F
:100D100048515C4F6F4F7F4F40935E0250935F028C
:100D20006093600270936102809137029091380263
:100D300001968C33910509F4C9C0909338028093D1
:100D400037020E94B4024114510409F4F0CD0E940C
:100D50000000EDCD10926902CF01880F991FFC01B0
:100D6000E35BFD4F60E08081F7CE80916C02909153
:100D70006D020196B5010E94DA0790936D0280938F
:100D80006C025ECF80916C0290916D024796B50126
:100D90000E94DA0790936D0280936C0277CF87E30D
:100DA00090E00E9464028823B9F08091350281119D
:100DB00013C080916E02812780936E0210926202AE
:100DC00010923802109237020093300264EB70E008
:100DD00080E090E00E9432028DE390E00E94640285
:100DE000882399F08091330281110FC080916E02A7
:100DF000882359F08091620281278093620264EB1C
:100E000070E080E090E00E94320288E390E00E946F
:100E100064028823F9F08091320281111BC0809115
:100E20006E028823B9F0809162028823A9F1809133
:100E3000390290913A0201966CE370E00E94DA0761
:100E400090933A028093390264EB70E080E090E086
:100E50000E94320289E390E00E946402882309F430
:100E60001BCF80913102811117CF80916E028823B0
:100E700009F412CF809162028823D9F0809139025F
:100E800090913A02CB966CE370E00E94DA0790935F
:100E90003A0280933902FACE80913B0290913C0253
:100EA0000196B5010E94DA0790933C0280933B02C1
:100EB000CBCF80913B0290913C024796B5010E94B6
:100EC000DA0790933C0280933B02E0CE1092380206
:100ED000109237028091390290913A0201968C3338
:100EE000910529F090933A02809339022ACF10920B
:100EF0003A021092390280913B0290913C02019695
:100F00008831910529F090933C0280933B0219CFE0
:100F100010923C0210923B0214CF209164022223D3
:100F200009F40FCF40915A0250915B0260915C022C
:100F300070915D02841B950BA60BB70B843F91400B
:100F4000A105B1050CF4FDCE4C505E4F6F4F7F4FA5
:100F500040935A0250935B0260935C0270935D026F
:100F600080913402812780933402EBCE40915A0263
:100F700050915B0260915C0270915D02841B950B45
:100F8000A60BB70B843F9140A105B1050CF4D9CE57
:100F90004C505E4F6F4F7F4F40935A0250935B020D
:100FA00060935C0270935D02809130028127809390
:100FB0003002C7CE97FB072E16F4009407D077FDBA
:100FC00009D00E94150807FC05D03EF49095819544
:100FD0009F4F0895709561957F4F0895052E97FB5B
:100FE0001EF400940E94050857FD07D00E942908AE
:100FF00007FC03D04EF40C940508509540953095AD
:1010000021953F4F4F4F5F4F089590958095709574
:1010100061957F4F8F4F9F4F0895EE0FFF1F881FE1
:101020008BBF0790F691E02D1994AA1BBB1B51E1D1
:1010300007C0AA1FBB1FA617B70710F0A61BB70B48
:10104000881F991F5A95A9F780959095BC01CD01ED
:101050000895A1E21A2EAA1BBB1BFD010DC0AA1FF9
:10106000BB1FEE1FFF1FA217B307E407F50720F011
:10107000A21BB30BE40BF50B661F771F881F991F8C
:101080001A9469F760957095809590959B01AC01D5
:0A109000BD01CF010895F894FFCFD1
:10109A00210020001F001E0025002400230022003A
:1010AA0029002800270026002D002C002B002A00EA
:1010BA00310030002F002E0035003400330032009A
:1010CA0001010101010101320022000C00010101AC
:1010DA000128022002180210020802000216001754
:0A10EA0000180019001A001B000096
:00000001FF
