:100000000C9424010C9445010C9445010C94450179
:100010000C9445010C9445010C9445010C94450148
:100020000C9445010C9445010C9445010C94450138
:100030000C9445010C9445010C9445010C94450128
:100040000C9445010C9445010C9445010C94450118
:100050000C9445010C9445010C9445010C945403F7
:100060000C9445010C9445010C9445010C944501F8
:100070000C9445010C9445010C9445010C944501E8
:100080000C9445010C9445010C9445010C944501D8
:100090000C9445010C9445010C9445010C944501C8
:1000A0000C9445010C9445010C9445010C944501B8
:1000B0000C9445010C9445010C9445010C944501A8
:1000C0000C9445010C9445010C9445010C94450198
:1000D0000C9445010C9445010C9445010C94450188
:1000E0000C9445010C947A010C94A5010C948001A8
:1000F0000C946F010C94A0010C94AA010C948E0135
:100100000C94A6010C9498010C9465010C949C012C
:100110000C9473010C9484010C946B010C948A016F
:100120000C9477010C94920100002000230026001B
:1001300029002C002F0032000001000003010601FD
:10014000090100002100240027002A002D003000B2
:10015000330001010000040107010A010000220030
:10016000250028002B002E00310034000201000081
:10017000050108010B010505050507050808080824
:10018000020202020A0A080804040404010101012F
:10019000010101010303030303030303040707072A
:1001A0000C0C0C0C0C0C0C0C0202020206060606CF
:1001B000060606060B0B0B0B0B0B0B0B010210209C
:1001C000200808102040102040800201020108048D
:1001D0000201010204081020408080402010080421
:1001E000020180040201804020100804020108047A
:1001F00002010102040810204080010204081020BE
:10020000408000000A0B02090C0D0E0807030401D0
:1002100000000000000000000000000000000000DE
:1002200000000000000000000000000000001211AB
:1002300010000000000000000000000000000000AE
:10024000000000000000000011241FBECFEFD1E22B
:10025000DEBFCDBF00E00CBF12E0A0E0B2E0E2E301
:10026000F0E100E00BBF02C007900D92A835B10786
:10027000D9F722E0A8E5B2E001C01D92AA37B20783
:10028000E1F70E949E030C9417080C940000815023
:10029000823108F05AC0E82FF0E08827ED5AFE4F6F
:1002A0008F4F0C94D9077301770165016B016F01C2
:1002B000A5017A01800184018A018E0192019801D1
:1002C0009C01A501A001A601AA01809180008F7761
:1002D000809380000895809180008F7DF9CF809178
:1002E0008000877FF5CF84B58F7784BD089584B56E
:1002F0008F7DFBCF8091B0008F778093B000089501
:100300008091B0008F7DF9CF809190008F7780939E
:1003100090000895809190008F7DF9CF809190009A
:10032000877FF5CF8091A0008F778093A0000895FC
:100330008091A0008F7DF9CF8091A000877FF5CFBD
:10034000809120018F778093200108958091200172
:100350008F7DF9CF80912001877FF5CF1F93CF93B9
:10036000DF93282F30E0F901EE5FFD4F8491F90112
:10037000E454FE4FD491F901EA58FE4FC491CC23C6
:10038000A9F0162F81110E944701EC2FF0E0EE0F2B
:10039000FF1FE45AFE4FA591B4918FB7F894EC91EA
:1003A000111108C0D095DE23DC938FBFDF91CF9170
:1003B0001F910895DE2BF8CFCF93DF9390E0FC01DF
:1003C000E454FE4F24918A589E4FFC018491882367
:1003D000D1F090E0880F991FFC01EE5BFE4FA591D4
:1003E000B491FC01E45AFE4FC591D491623071F48E
:1003F0009FB7F8943C91822F809583238C93E8815A
:100400002E2B28839FBFDF91CF9108958FB7F8944B
:10041000EC912E2B2C938FBFF6CF3FB7F8948091A1
:10042000760290917702A0917802B091790226B578
:10043000A89B05C02F3F19F00196A11DB11D3FBF1C
:10044000BA2FA92F982F8827BC01CD01620F711DEB
:10045000811D911D42E0660F771F881F991F4A95E5
:10046000D1F708958F929F92AF92BF92CF92DF9271
:10047000EF92FF924B015C010E940D026B017C0127
:100480000E940D026C197D098E099F09683E734018
:1004900081059105A8F321E0821A9108A108B1080D
:1004A00088EEC80E83E0D81EE11CF11C8114910473
:1004B000A104B10429F7FF90EF90DF90CF90BF9097
:1004C000AF909F908F900895CF93DF939C01FC0194
:1004D000EE5FFD4F8491F901E454FE4FD491F90190
:1004E000EA58FE4FC491CC23C9F081110E94470104
:1004F000EC2FF0E0EE0FFF1FE85DFE4FA591B491E9
:10050000EC91ED2331E020E009F430E0832F922FCD
:1005100021E082278170DF91CF91089590E080E003
:10052000F7CFEF92FF920F931F93CF93DF937C014E
:100530008B01D0E0C0E0F80180810E5F1F4FB70152
:100540000C2E02C0759567950A94E2F761700E94BF
:10055000AE012196C430D10571F7DF91CF911F9183
:100560000F91FF90EF900895EF92FF920F931F93DA
:10057000CF93DF93C0916D02CC2309F452C068E29F
:1005800072E08FE090E00E94910260E272E08FE002
:1005900090E00E94910280916202882369F080912C
:1005A0006102C0913402882339F02FE030E09FE0EF
:1005B000E92EF12CCC2361F08091680290916902C0
:1005C0006AE070E00E94A6077B019C01CC2321F128
:1005D00080916A0290916B026AE070E00E94A60727
:1005E000EB018C0168E172E0C9010E94910260E1B7
:1005F00072E0C7010E94910268E072E0C8010E94A7
:10060000910260E072E0CE01DF91CF911F910F91D6
:10061000FF90EF900C9491020FE010E0CFE0D0E05B
:10062000E1CF80913702909138026AE070E00E9439
:10063000A607EB0168E272E00E94910260E272E0BC
:10064000CE010E94910280916C02882359F1809121
:10065000600220913002882339F0EFE0F0E08FE073
:10066000E82EF12C222381F08091390290913A02F8
:100670006AE070E00E94A6077B01FC010FE010E039
:10068000CFE0D0E0222351F080913B0290913C02D8
:100690006AE070E00E94A607EB018C0168E172E05D
:1006A000CF01A3CF21E0E0CF1F920F920FB60F92A0
:1006B00011242F933F938F939F93AF93BF93809178
:1006C000720290917302A0917402B0917502309100
:1006D000710223E0230F2D3758F50196A11DB11D9E
:1006E000209371028093720290937302A09374021C
:1006F000B09375028091760290917702A091780272
:10070000B09179020196A11DB11D8093760290935C
:100710007702A0937802B0937902BF91AF919F9135
:100720008F913F912F910F900FBE0F901F901895B2
:1007300026E8230F0296A11DB11DD2CFCF93DF93E0
:10074000CDB7DEB760970FB6F894DEBF0FBECDBF52
:10075000789484B5826084BD84B5816084BD85B59C
:10076000826085BD85B5816085BD80916E008160A8
:1007700080936E001092810080918100826080934E
:100780008100809181008160809381008091800050
:100790008160809380008091B10084608093B1007B
:1007A0008091B00081608093B00080919100826060
:1007B000809391008091910081608093910080915D
:1007C00090008160809390008091A100826080936E
:1007D000A1008091A10081608093A1008091A00080
:1007E00081608093A000809121018260809321012B
:1007F000809121018160809321018091200181609D
:100800008093200180917A00846080937A008091A7
:100810007A00826080937A0080917A008160809370
:100820007A0080917A00806880937A001092C100EB
:100830008CE0EFE3F2E0DE01119601900D928A95D3
:10084000E1F78E010F5F1F4F6E012DE0C20ED11C2C
:10085000F12CE12CD801ED91FC91EE0DFF1D61E032
:1008600080810E94DC01B2E0EB0EF11CE8E0EE16A4
:10087000F10481F70E5F1F4F0C151D0549F762E06B
:1008800086E30E94DC0162E087E30E94DC0162E013
:1008900088E30E94DC0162E089E30E94DC0162E0FF
:1008A0008DE30E94DC0162E08CE30E94DC0107E53D
:1008B00012E0BBE4EB2EB2E0FB2ED7018C91B2E04C
:1008C000EB0EF11C61E00E94DC010E151F05A9F77B
:1008D00068EE73E080E090E00E9432022FB7F89457
:1008E0008091720290917302A0917402B09175028E
:1008F0002FBF80935C0290935D02A0935E02B09341
:100900005F028093580290935902A0935A02B093C9
:100910005B020E94B40211E0E4EF4E2E5524539482
:10092000612C712CF8E1CF2ED12CA0E02A2EA0E072
:100930003A2E01E08CE390E00E946402882301F1EA
:1009400080913E0281111CC080917002882309F4BD
:10095000CAC1109270027BE4A72E72E0B72EF50197
:100960008081F2E0AF0EB11C60E00E94AE01AE14D7
:10097000BF04A9F764EB70E080E090E00E943202CF
:100980008CE390E00E94640280933E0280917002AA
:100990008823E1F16BE4A62E62E0B62ED5018C919E
:1009A000B2E0AB0EB11C60E00E94AE01AE14BF0419
:1009B000A9F7A0906E02B0906F02F501EE0FFF1F35
:1009C000E55BFD4F61E080810E94AE018DE390E028
:1009D0000E9464028823A1F080913D02811110C021
:1009E000C501019666E070E00E94A60790936F0231
:1009F00080936E0264EB70E080E090E00E9432022F
:100A00008DE390E00E94640280933D0280916D022C
:100A1000811135C080916C02811131C020913B025F
:100A200030913C0280916A0290916B02281739073D
:100A300031F52091390230913A028091680290910B
:100A4000690228173907D9F480913702909138024A
:100A5000892BA9F4009367022FB7F8948091720252
:100A600090917302A0917402B09175022FBF809390
:100A7000630290936402A0936502B0936602809132
:100A800067028823A1F12FB7F894609172027091E8
:100A9000730280917402909175022FBF809063025F
:100AA00090906402A0906502B09066029B01AC0138
:100AB000281939094A095B09E0916E02F0916F0229
:100AC00021363A4E410551050CF010C19F01220F0D
:100AD000331FF901E55BFD4FB080A30192010E9435
:100AE000BA0761E020FD60E08B2D0E94AE0186E335
:100AF00090E00E946402882389F08091360281117F
:100B00000DC080916D02812780936D021092620268
:100B100064EB70E080E090E00E94320286E390E0B7
:100B20000E9464028093360280916D02882309F44A
:100B300002C187E390E00E946402882389F08091DB
:100B4000350281110DC0809162028127809362027B
:100B50000093340264EB70E080E090E00E94320287
:100B60008DE390E00E946402882399F08091330223
:100B700081110FC080916202882359F08091610237
:100B800081278093610264EB70E080E090E00E9436
:100B9000320288E390E00E946402882301F1809190
:100BA000320281111CC0809162028823C1F08091C1
:100BB0006102882309F4A5C08091680290916902BE
:100BC00001966CE370E00E94A607909369028093FF
:100BD000680264EB70E080E090E00E94320289E3FA
:100BE00090E00E946402882301F18091310281111A
:100BF0001CC0809162028823C1F080916102882329
:100C000009F48CC08091680290916902CB966CE3E4
:100C100070E00E94A607909369028093680264EBDB
:100C200070E080E090E00E94320287E390E00E9452
:100C300064028093350288E390E00E94640280930E
:100C4000320289E390E00E946402809331028DE3D6
:100C500090E00E946402809333022FB7F894809151
:100C6000720290917302A0917402B09175022FBF2D
:100C700020916D0221111DC120916C02211142C1F0
:100C800040915C0250915D0260915E0270915F0242
:100C9000841B950BA60BB70B883E9340A105B105AD
:100CA000CCF048515C4F6F4F7F4F40935C025093A4
:100CB0005D0260935E0270935F02809137029091B3
:100CC000380201968C33910509F4CCC09093380218
:100CD000809337020E94B4022114310409F42ACE11
:100CE0000E94000027CE0093700244CE109267024B
:100CF000CF01880F991FFC01E55BFD4F60E080810B
:100D0000F4CE80916A0290916B020196B6010E9426
:100D1000A60790936B0280936A025BCF80916A0270
:100D200090916B024796B6010E94A60790936B02C2
:100D300080936A0274CF87E390E00E946402882364
:100D4000B9F080913502811113C080916C02812726
:100D500080936C0210926002109238021092370257
:100D60000093300264EB70E080E090E00E94320279
:100D70008DE390E00E946402882399F08091330211
:100D800081110FC080916C02882359F0809160021C
:100D900081278093600264EB70E080E090E00E9425
:100DA000320288E390E00E9464028823F9F0809187
:100DB000320281111BC080916C028823B9F08091AE
:100DC00060028823A9F18091390290913A0201963C
:100DD0006CE370E00E94A60790933A028093390278
:100DE00064EB70E080E090E00E94320289E390E0E2
:100DF0000E946402882309F418CF80913102811186
:100E000014CF80916C02882309F40FCF8091600287
:100E10008823D9F08091390290913A02CB966CE305
:100E200070E00E94A60790933A0280933902F7CEB1
:100E300080913B0290913C020196B6010E94A60768
:100E400090933C0280933B02CBCF80913B029091E8
:100E50003C024796B6010E94A60790933C028093FD
:100E60003B02DDCE10923802109237028091390297
:100E700090913A0201968C33910529F090933A02B1
:100E80008093390227CF10923A0210923902809152
:100E90003B0290913C0201968831910529F0909394
:100EA0003C0280933B0216CF10923C0210923B0210
:100EB00011CF20916202222309F40CCF40915802F5
:100EC0005091590260915A0270915B02841B950BFC
:100ED000A60BB70B843F9140A105B1050CF4FACEE7
:100EE0004C505E4F6F4F7F4F4093580250935902C2
:100EF00060935A0270935B02809134028127809341
:100F00003402E8CE409158025091590260915A0241
:100F100070915B02841B950BA60BB70B843F91402D
:100F2000A105B1050CF4D6CE4C505E4F6F4F7F4FEC
:100F3000409358025093590260935A0270935B0297
:100F400080913002812780933002C4CE97FB072E18
:100F500016F4009407D077FD09D00E94E10707FC42
:100F600005D03EF4909581959F4F089570956195B9
:100F70007F4F0895052E97FB1EF400940E94D10721
:100F800057FD07D00E94F50707FC03D04EF40C94E0
:100F9000D10750954095309521953F4F4F4F5F4F6A
:100FA000089590958095709561957F4F8F4F9F4FD5
:100FB0000895EE0FFF1F881F8BBF0790F691E02D5D
:100FC0001994AA1BBB1B51E107C0AA1FBB1FA61780
:100FD000B70710F0A61BB70B881F991F5A95A9F7E2
:100FE00080959095BC01CD010895A1E21A2EAA1B0F
:100FF000BB1BFD010DC0AA1FBB1FEE1FFF1FA217C9
:10100000B307E407F50720F0A21BB30BE40BF50BC5
:10101000661F771F881F991F1A9469F7609570954E
:10102000809590959B01AC01BD01CF010895F89486
:02103000FFCFF0
:10103200210020001F001E002500240023002200A2
:1010420029002800270026002D002C002B002A0052
:10105200310030002F002E00350034003300320002
:1010620001010101010101320022000C00010128ED
:101072000220021802100208020002180019001AC7
:08108200001B001C001D000012
:00000001FF
