:100000000C9424010C9445010C9445010C94450179
:100010000C9445010C9445010C9445010C94450148
:100020000C9445010C9445010C9445010C94450138
:100030000C9445010C9445010C9445010C94450128
:100040000C9445010C9445010C9445010C94450118
:100050000C9445010C9445010C9445010C944D03FE
:100060000C9445010C9445010C9445010C944501F8
:100070000C9445010C9445010C9445010C944501E8
:100080000C9445010C9445010C9445010C944501D8
:100090000C9445010C9445010C9445010C944501C8
:1000A0000C9445010C9445010C9445010C944501B8
:1000B0000C9445010C9445010C9445010C944501A8
:1000C0000C9445010C9445010C9445010C94450198
:1000D0000C9445010C9445010C9445010C94450188
:1000E0000C9445010C946F010C948A010C949801B6
:1000F0000C9465010C9484010C9492010C949C0165
:100100000C9473010C946B010C94A6010C94AA013D
:100110000C948E010C94A0010C947A010C94800133
:100120000C94A5010C947701000020002300260008
:1001300029002C002F0032000001000003010601FD
:10014000090100000A0B02090C0D0E080703040147
:10015000000000000000000000000000000000009F
:10016000000000000000000000000000000012116C
:10017000100000000000000000000000000000006F
:100180000000000000000000000022002500280000
:100190002B002E003100340002010000050108018F
:1001A0000B0100002100240027002A002D00300050
:1001B000330001010000040107010A0105050505DE
:1001C000070508080808020202020A0A08080404CF
:1001D00004040101010101010101030303030303FD
:1001E0000303040707070C0C0C0C0C0C0C0C02028C
:1001F000020206060606060606060B0B0B0B0B0B89
:100200000B0B010210202008081020401020408015
:1002100002010201080402010102040810204080CA
:100220008040201008040201800402018040201058
:1002300008040201080402010102040810204080A1
:10024000010204081020408011241FBECFEFD1E22C
:10025000DEBFCDBF00E00CBF12E0A0E0B2E0E6E9F7
:10026000FDE000E00BBF02C007900D92AA34B10779
:10027000D9F722E0AAE4B2E001C01D92A436B20789
:10028000E1F70E9497030C94C9060C94000081507A
:10029000823108F05AC0E82FF0E08827ED5AFE4F6F
:1002A0008F4F0C94AD067301770165016B016F01EF
:1002B000A5017A01800184018A018E0192019801D1
:1002C0009C01A501A001A601AA01809180008F7761
:1002D000809380000895809180008F7DF9CF809178
:1002E0008000877FF5CF84B58F7784BD089584B56E
:1002F0008F7DFBCF8091B0008F778093B000089501
:100300008091B0008F7DF9CF809190008F7780939E
:1003100090000895809190008F7DF9CF809190009A
:10032000877FF5CF8091A0008F778093A0000895FC
:100330008091A0008F7DF9CF8091A000877FF5CFBD
:10034000809120018F778093200108958091200172
:100350008F7DF9CF80912001877FF5CFCF93DF93F9
:1003600090E0FC01EE5FFD4F249184549E4FFC0110
:1003700084918823D1F090E0880F991FFC01EE55FD
:10038000FE4FA591B491FC01E857FE4FC591D49161
:10039000623071F49FB7F8943C91822F809583234B
:1003A0008C93E8812E2B28839FBFDF91CF910895F6
:1003B0008FB7F894EC912E2B2C938FBFF6CF3FB7CD
:1003C000F8948091600290916102A0916202B091D4
:1003D000630226B5A89B05C02F3F19F00196A11D09
:1003E000B11D3FBFBA2FA92F982F8827BC01CD017F
:1003F000620F711D811D911D42E0660F771F881FDE
:10040000991F4A95D1F708958F929F92AF92BF920C
:10041000CF92DF92EF92FF924B015C010E94DF01CD
:100420006B017C010E94DF016C197D098E099F0917
:10043000683E734081059105A8F321E0821A910876
:10044000A108B10888EEC80E83E0D81EE11CF11C9B
:1004500081149104A104B10429F7FF90EF90DF907B
:10046000CF90BF90AF909F908F900895CF93DF93E0
:100470009C01FC01EE5BFE4F8491F901EE5FFD4FA4
:10048000D491F901E454FE4FC491CC23C9F08111F9
:100490000E944701EC2FF0E0EE0FFF1FE85DFE4FDA
:1004A000A591B491EC91ED2331E020E009F430E026
:1004B000832F922F21E082278170DF91CF910895C1
:1004C00090E080E0F7CFCF92DF92EF92FF920F9310
:1004D0001F93CF93DF937C018B01D0E0C0E0F80144
:1004E000219131918F013327F901EE5BFE4F849109
:1004F000F901EE5FFD4FD490F901E454FE4FC49032
:10050000CC20D9F081110E944701EC2DF0E0EE0FD4
:10051000FF1FE857FE4FA591B4918FB7F89497014C
:100520000C2E02C0359527950A94E2F7EC9120FD38
:1005300012C0D094DE22DC928FBF2196C430D10548
:1005400009F0CDCFDF91CF911F910F91FF90EF90E8
:10055000DF90CF900895DE2AEECFEF92FF920F93B7
:100560001F93CF93DF93C0915A02CC2309F452C05A
:1005700068E272E08FE090E00E94630260E272E065
:100580008FE090E00E94630280915902882369F015
:1005900080915802C0913A02882339F02FE030E070
:1005A0009FE0E92EF12CCC2361F0809156029091CE
:1005B00057026AE070E00E9499067B019C01CC23FF
:1005C00021F180915402909155026AE070E00E94FE
:1005D0009906EB018C0168E172E0C9010E94630297
:1005E00060E172E0C7010E94630268E072E0C80146
:1005F0000E94630260E072E0CE01DF91CF911F9113
:100600000F91FF90EF900C9463020FE010E0CFE0A9
:10061000D0E0E1CF80913502909136026AE070E03F
:100620000E949906EB0168E272E00E94630260E2B8
:1006300072E0CE010E94630280915302882359F137
:100640008091520220913402882339F0EFE0F0E0EB
:100650008FE0E82EF12C222381F0809132029091DC
:1006600033026AE070E00E9499067B01FC010FE012
:1006700010E0CFE0D0E0222351F080913002909141
:1006800031026AE070E00E949906EB018C0168E19A
:1006900072E0CF01A3CF21E0E0CF1F920F920FB6FF
:1006A0000F9211242F933F938F939F93AF93BF93F8
:1006B00080915C0290915D02A0915E02B0915F0218
:1006C00030915B0223E0230F2D3758F50196A11DD1
:1006D000B11D20935B0280935C0290935D02A09316
:1006E0005E02B0935F028091600290916102A091DE
:1006F0006202B09163020196A11DB11D8093600258
:1007000090936102A0936202B0936302BF91AF9194
:100710009F918F913F912F910F900FBE0F901F903F
:10072000189526E8230F0296A11DB11DD2CFCF93B5
:10073000DF93CDB7DEB72C970FB6F894DEBF0FBEB0
:10074000CDBF789484B5826084BD84B5816084BD5A
:1007500085B5826085BD85B5816085BD80916E005F
:10076000816080936E001092810080918100826090
:1007700080938100809181008160809381008091CD
:1007800080008160809380008091B10084608093BC
:10079000B1008091B00081608093B00080919100A1
:1007A000826080939100809191008160809391009C
:1007B000809190008160809390008091A100826080
:1007C0008093A1008091A10081608093A10080911D
:1007D000A00081608093A0008091210182608093BD
:1007E000210180912101816080932101809120016C
:1007F00081608093200180917A00846080937A00E8
:1008000080917A00826080937A0080917A00816082
:1008100080937A0080917A00806880937A001092A9
:10082000C1008CE0EDE3F2E0DE01119601900D9243
:100830008A95E1F78E010F5F1F4F6E012DE0C20E0A
:10084000D11CF12CE12CD801ED91FC91EE0DFF1D96
:1008500061E080810E94AE01B2E0EB0EF11C28E065
:10086000E216F10481F70E5F1F4F0C151D0549F7C5
:1008700062E086E30E94AE0162E087E30E94AE017F
:1008800062E088E30E94AE0162E089E30E94AE016B
:1008900062E08DE30E94AE0168EE73E080E090E0DC
:1008A0000E9404022FB7F89480915C0290915D023F
:1008B000A0915E02B0915F022FBF80934E02909391
:1008C0004F02A0935002B093510280934A0290933A
:1008D0004B02A0934C02B0934D020E94AD02BB2488
:1008E000B39408E110E08CE3E82EF12C90E0C92EDF
:1008F00090E0D92EAA24A39486E390E00E943602C9
:10090000882389F080913C0281110DC080915A02A8
:100910008B2580935A021092590264EB70E080E0BC
:1009200090E00E94040286E390E00E9436028093E9
:100930003C0280915A02882309F4F2C087E390E0D8
:100940000E943602882389F080913B0281110DC0FC
:10095000809159028B2580935902A0923A0264EB50
:1009600070E080E090E00E9404028DE390E00E943D
:100970003602882399F08091390281110FC080914D
:100980005902882359F0809158028B258093580290
:1009900064EB70E080E090E00E94040288E390E065
:1009A0000E9436028823F9F08091380281111BC021
:1009B000809159028823B9F080915802882309F464
:1009C00095C080915602909157020196B7010E94FE
:1009D0009906909357028093560264EB70E080E092
:1009E00090E00E94040289E390E00E94360288238E
:1009F000F9F08091370281111BC080915902882340
:100A0000B9F080915802882309F47DC08091560284
:100A100090915702CB96B7010E9499069093570286
:100A20008093560264EB70E080E090E00E94040244
:100A300087E390E00E94360280933B0288E390E0D7
:100A40000E9436028093380289E390E00E943602C9
:100A5000809337028DE390E00E9436028093390242
:100A60002FB7F89480915C0290915D02A0915E0294
:100A7000B0915F022FBF20915A0221110DC1209128
:100A80005302211132C140914E0250914F026091A8
:100A9000500270915102841B950BA60BB70B883E38
:100AA0009340A105B105CCF048515C4F6F4F7F4F8B
:100AB00040934E0250934F02609350027093510244
:100AC000809135029091360201968C33910509F49C
:100AD000BCC090933602809335020E94AD02C114CF
:100AE000D10409F409CF0E94000006CF809154027E
:100AF000909155020196B8010E9499069093550273
:100B0000809354026ACF8091540290915502479687
:100B1000B8010E949906909355028093540282CFA7
:100B200087E390E00E9436028823B9F080913B026F
:100B3000811113C0809153028B2580935302109230
:100B400052021092360210923502A092340264EBE7
:100B500070E080E090E00E9404028DE390E00E944B
:100B60003602882399F08091390281110FC080915B
:100B70005302882359F0809152028B2580935202B0
:100B800064EB70E080E090E00E94040288E390E073
:100B90000E9436028823F1F08091380281111AC038
:100BA000809153028823B1F080915202882399F1F9
:100BB00080913202909133020196B7010E9499060A
:100BC000909333028093320264EB70E080E090E017
:100BD0000E94040289E390E00E943602882309F40F
:100BE00027CF80913702811123CF80915302882330
:100BF00009F41ECF809152028823D1F080913202F5
:100C000090913302CB96B7010E94990690933302DC
:100C10008093320207CF8091300290913102019689
:100C2000B8010E9499069093310280933002CCCF94
:100C300080913002909131024796B8010E94990646
:100C40009093310280933002EDCE109236021092D2
:100C50003502809132029091330201968C339105D6
:100C600029F0909333028093320237CF10923302EF
:100C700010923202809130029091310201968831B7
:100C8000910529F0909331028093300226CF109283
:100C900031021092300221CF20915902222309F40F
:100CA0001CCF40914A0250914B0260914C027091CE
:100CB0004D02841B950BA60BB70B843F9140A105F9
:100CC000B1050CF40ACF4C505E4F6F4F7F4F4093ED
:100CD0004A0250934B0260934C0270934D028091F4
:100CE0003A028B2580933A02F8CE40914A02509105
:100CF0004B0260914C0270914D02841B950BA60B28
:100D0000B70B843F9140A105B1050CF4E6CE4C50E1
:100D10005E4F6F4F7F4F40934A0250934B02609358
:100D20004C0270934D02809134028B2580933402E3
:100D3000D4CE97FB072E16F4009407D077FD09D088
:100D40000E94B50607FC05D03EF4909581959F4F13
:100D50000895709561957F4F0895EE0FFF1F881FCE
:100D60008BBF0790F691E02D1994AA1BBB1B51E194
:100D700007C0AA1FBB1FA617B70710F0A61BB70B0B
:100D8000881F991F5A95A9F780959095BC01CD01B0
:060D90000895F894FFCF66
:100D9600210020001F001E00250024002300220041
:100DA60029002800270026002D002C002B002A00F1
:100DB600310030002F002E003500340033003200A1
:100DC6000C0022000132000101010101012802206C
:0A0DD60002180210020802000200D9
:00000001FF
