:100000000C9424010C9445010C9445010C94450179
:100010000C9445010C9445010C9445010C94450148
:100020000C9445010C9445010C9445010C94450138
:100030000C9445010C9445010C9445010C94450128
:100040000C9445010C9445010C9445010C94450118
:100050000C9445010C9445010C9445010C9410033B
:100060000C9445010C9445010C9445010C944501F8
:100070000C9445010C9445010C9445010C944501E8
:100080000C9445010C9445010C9445010C944501D8
:100090000C9445010C9445010C9445010C944501C8
:1000A0000C9445010C9445010C9445010C944501B8
:1000B0000C9445010C9445010C9445010C944501A8
:1000C0000C9445010C9445010C9445010C94450198
:1000D0000C9445010C9445010C9445010C94450188
:1000E0000C9445010C946F010C948A010C949801B6
:1000F0000C9465010C9484010C9492010C949C0165
:100100000C9473010C946B010C94A6010C94AA013D
:100110000C948E010C94A0010C947A010C94800133
:100120000C94A5010C947701000020002300260008
:1001300029002C002F0032000001000003010601FD
:10014000090100000A0B02090C0D0E080703040147
:10015000000000000000000000000000000000009F
:10016000000000000000000000000000000012116C
:10017000100000000000000000000000000000006F
:100180000000000000000000000022002500280000
:100190002B002E003100340002010000050108018F
:1001A0000B0100002100240027002A002D00300050
:1001B000330001010000040107010A0105050505DE
:1001C000070508080808020202020A0A08080404CF
:1001D00004040101010101010101030303030303FD
:1001E0000303040707070C0C0C0C0C0C0C0C02028C
:1001F000020206060606060606060B0B0B0B0B0B89
:100200000B0B010210202008081020401020408015
:1002100002010201080402010102040810204080CA
:100220008040201008040201800402018040201058
:1002300008040201080402010102040810204080A1
:10024000010204081020408011241FBECFEFD1E22C
:10025000DEBFCDBF00E00CBF12E0A0E0B2E0EAE2FA
:10026000FBE000E00BBF02C007900D92A434B10781
:10027000D9F722E0A4E4B2E001C01D92AB35B20789
:10028000E1F70E945A030C9493050C9400008150EE
:10029000823108F05AC0E82FF0E08827ED5AFE4F6F
:1002A0008F4F0C9477057301770165016B016F0126
:1002B000A5017A01800184018A018E0192019801D1
:1002C0009C01A501A001A601AA01809180008F7761
:1002D000809380000895809180008F7DF9CF809178
:1002E0008000877FF5CF84B58F7784BD089584B56E
:1002F0008F7DFBCF8091B0008F778093B000089501
:100300008091B0008F7DF9CF809190008F7780939E
:1003100090000895809190008F7DF9CF809190009A
:10032000877FF5CF8091A0008F778093A0000895FC
:100330008091A0008F7DF9CF8091A000877FF5CFBD
:10034000809120018F778093200108958091200172
:100350008F7DF9CF80912001877FF5CFCF93DF93F9
:1003600090E0FC01EE5FFD4F249184549E4FFC0110
:1003700084918823D1F090E0880F991FFC01EE55FD
:10038000FE4FA591B491FC01E857FE4FC591D49161
:10039000623071F49FB7F8943C91822F809583234B
:1003A0008C93E8812E2B28839FBFDF91CF910895F6
:1003B0008FB7F894EC912E2B2C938FBFF6CF3FB7CD
:1003C000F8948091570290915802A0915902B091EF
:1003D0005A0226B5A89B05C02F3F19F00196A11D12
:1003E000B11D3FBFBA2FA92F982F8827BC01CD017F
:1003F000620F711D811D911D42E0660F771F881FDE
:10040000991F4A95D1F708958F929F92AF92BF920C
:10041000CF92DF92EF92FF920E94DF014B015C01CD
:1004200084EBC82ED12CE12CF12C0E94DF0168193D
:1004300079098A099B09683E734081059105A8F3F3
:1004400021E0C21AD108E108F10888EE880E83E0A5
:10045000981EA11CB11CC114D104E104F10429F7B8
:10046000FF90EF90DF90CF90BF90AF909F908F90D4
:100470000895CF93DF939C01FC01EE5BFE4F8491C6
:10048000F901EE5FFD4FD491F901E454FE4FC491A0
:10049000CC23C9F081110E944701EC2FF0E0EE0F50
:1004A000FF1FE85DFE4FA591B491EC91ED2331E083
:1004B00020E009F430E0832F922F21E08227817021
:1004C000DF91CF91089590E080E0F7CFCF92DF9257
:1004D000EF92FF920F931F93CF93DF937C018B01D9
:1004E000D0E0C0E0F801219131918F013327F9016B
:1004F000EE5BFE4F8491F901EE5FFD4FD490F90160
:10050000E454FE4FC490CC20D9F081110E944701E1
:10051000EC2DF0E0EE0FFF1FE857FE4FA591B491D0
:100520008FB7F89497010C2E02C0359527950A9441
:10053000E2F7EC9120FD12C0D094DE22DC928FBF56
:100540002196C430D10509F0CDCFDF91CF911F9115
:100550000F91FF90EF90DF90CF900895DE2AEECFBD
:10056000EF92FF920F931F93CF93DF938091350209
:10057000909136026AE070E00E946305EB0168E248
:1005800072E00E94660260E272E0CE010E946602A2
:1005900080915002882309F441C080914F0220913C
:1005A0003402882339F0EFE0F0E08FE0E82EF12C00
:1005B000222381F080913202909133026AE070E050
:1005C0000E9463057B01FC010FE010E0CFE0D0E06A
:1005D000222351F080913002909131026AE070E064
:1005E0000E946305EB018C0168E172E0CF010E947B
:1005F000660260E172E0C7010E94660268E072E094
:10060000C8010E94660260E072E0CE01DF91CF91E6
:100610001F910F91FF90EF900C94660221E0CACFDA
:100620001F920F920FB60F9211242F933F938F9327
:100630009F93AF93BF938091530290915402A091E6
:100640005502B09156023091520223E0230F2D370C
:1006500058F50196A11DB11D2093520280935302BB
:1006600090935402A0935502B09356028091570282
:1006700090915802A0915902B0915A020196A11D81
:10068000B11D8093570290935802A0935902B093E2
:100690005A02BF91AF919F918F913F912F910F90EF
:1006A0000FBE0F901F90189526E8230F0296A11DEC
:1006B000B11DD2CFCF93DF93CDB7DEB72C970FB656
:1006C000F894DEBF0FBECDBF789484B5826084BD40
:1006D00084B5816084BD85B5826085BD85B5816046
:1006E00085BD80916E00816080936E0010928100C4
:1006F000809181008260809381008091810081607F
:10070000809381008091800081608093800080913F
:10071000B10084608093B1008091B00081608093CB
:10072000B00080919100826080939100809191004F
:10073000816080939100809190008160809390000F
:100740008091A10082608093A1008091A1008160CE
:100750008093A1008091A00081608093A00080918F
:100760002101826080932101809121018160809329
:1007700021018091200181608093200180917A0085
:10078000846080937A0080917A00826080937A00FE
:1007900080917A00816080937A0080917A008068ED
:1007A00080937A001092C1008CE0E7E3F2E0DE0172
:1007B000119601900D928A95E1F78E010F5F1F4F00
:1007C0006E012DE0C20ED11CF12CE12CD801ED916F
:1007D000FC91EE0DFF1D61E080810E94AE01B2E050
:1007E000EB0EF11C28E0E216F10481F70E5F1F4FBB
:1007F0000C151D0549F762E087E30E94AE0162E037
:1008000088E30E94AE0162E089E30E94AE0162E0EB
:100810008DE30E94AE012FB7F8948091530290911E
:100820005402A0915502B09156022FBF8093480206
:1008300090934902A0934A02B0934B0280934402E2
:1008400090934502A0934602B09347020E94B002E3
:10085000BB24B39408E110E08CE3E82EF12C90E087
:10086000C92E90E0D92EAA24A39487E390E00E9499
:100870003902882399F08091510281110FC0809133
:1008800050028B258093500210924F021092360234
:1008900010923502A09234020E9404028DE390E08F
:1008A0000E943902882379F080914E0281110BC099
:1008B00080915002882339F080914F028B258093DC
:1008C0004F020E94040288E390E00E9439028823CC
:1008D000D9F080914D02811117C080915002882378
:1008E00099F080914F02882309F488C080913202E8
:1008F000909133020196B7010E94630590933302F1
:10090000809332020E94040289E390E00E9439023F
:100910008823D9F080914C02811117C08091500238
:10092000882399F080914F02882309F474C0809144
:10093000320290913302CB96B7010E9463059093E7
:100940003302809332020E94040287E390E00E9407
:1009500039028093510288E390E00E94390280932B
:100960004D0289E390E00E94390280934C028DE3AE
:1009700090E00E94390280934E022FB7F894809144
:10098000530290915402A0915502B09156022FBF8C
:1009900020915002211173C04091480250914902A8
:1009A00060914A0270914B02841B950BA60BB70B0A
:1009B000843F9140A105B105C4F04C505E4F6F4F8C
:1009C0007F4F409348025093490260934A027093CC
:1009D0004B02809135029091360201968C3391053D
:1009E00039F190933602809335020E94B002C1140F
:1009F000D10409F43ACF0E94000037CF8091300231
:100A0000909131020196B8010E94630590933102E2
:100A10008093300277CF80913002909131024796D7
:100A2000B8010E94630590933102809330028BCF0E
:100A30001092360210923502809132029091330268
:100A400001968C33910529F0909333028093320202
:100A5000CCCF1092330210923202809130029091EA
:100A6000310201968831910529F0909331028093EB
:100A70003002BBCF1092310210923002B6CF4091BB
:100A80004402509145026091460270914702841BD6
:100A9000950BA60BB70B843F9140A105B1050CF453
:100AA000A4CF4C505E4F6F4F7F4F40934402509302
:100AB00045026093460270934702809134028B2571
:100AC0008093340292CF97FB072E16F4009407D040
:100AD00077FD09D00E947F0507FC05D03EF4909574
:100AE00081959F4F0895709561957F4F0895EE0F02
:100AF000FF1F881F8BBF0790F691E02D1994AA1B4A
:100B0000BB1B51E107C0AA1FBB1FA617B70710F0F8
:100B1000A61BB70B881F991F5A95A9F7809590952A
:0A0B2000BC01CD010895F894FFCF49
:100B2A00210020001F001E002500240023002200AF
:100B3A0029002800270026002D002C002B002A005F
:100B4A00310030002F002E0035003400330032000F
:100B5A000C002200013200280220021802100208AA
:040B6A000200020083
:00000001FF
