:100000000C9417010C9438010C9438010C943801AD
:100010000C9438010C9438010C9438010C9438017C
:100020000C9438010C9438010C9438010C9438016C
:100030000C9438010C9438010C9438010C9438015C
:100040000C9438010C9438010C9438010C9438014C
:100050000C9438010C9438010C9438010C945B0218
:100060000C9438010C9438010C9438010C9438012C
:100070000C9438010C9438010C9438010C9438011C
:100080000C9438010C9438010C9438010C9438010C
:100090000C9438010C9438010C9438010C943801FC
:1000A0000C9438010C9438010C9438010C943801EC
:1000B0000C9438010C9438010C9438010C943801DC
:1000C0000C9438010C9438010C9438010C943801CC
:1000D0000C9438010C9438010C9438010C943801BC
:1000E0000C9438010C940D020C94F1010C9409024B
:1000F0000C94B4010C94D8010C94F7010C94E40115
:100100000C94DC010C94FF010C94FB010C9405028F
:100110000C94E7010C9413020C9417020C94B9018F
:100120000C94ED010C94E00100000A0B02090C0D87
:100130000E0807030401000000000000000000009A
:1001400000000000000000000000000000000000AF
:10015000000000001211100000000000000000006C
:10016000000000000000000000000000000000008F
:100170002200250028002B002E003100340002014F
:100180000000050108010B010000210024002700E8
:100190002A002D0030003300010100000401070196
:1001A0000A010505050507050808080802020202FC
:1001B0000A0A080804040404010101010101010103
:1001C0000303030303030303040707070C0C0C0CCE
:1001D0000C0C0C0C020202020606060606060606B7
:1001E0000B0B0B0B0B0B0B0B010210202008081044
:1001F0002040102040800201020108040201010297
:10020000040810204080804020100804020180046F
:1002100002018040201008040201080402010102CA
:10022000040810204080010204081020408011249E
:100230001FBECFEFD1E2DEBFCDBF00E00CBF12E0AA
:10024000A0E0B2E0E6EDF7E000E00BBF02C00790EF
:100250000D92A633B107D9F722E0A6E3B2E001C0C0
:100260001D92AF33B207E1F70E94A5020C94E90397
:100270000C94000090E0FC01E851FE4F24918E5553
:100280009E4FFC018491882399F090E0880F991F7C
:10029000FC01E857FE4FA591B491FC01E259FE4FD5
:1002A000859194918FB7F894EC91E22BEC938FBFEA
:1002B00008953FB7F89480913B0290913C02A09141
:1002C0003D02B0913E0226B5A89B05C02F3F19F014
:1002D0000196A11DB11D3FBFBA2FA92F982F8827C6
:1002E000BC01CD01620F711D811D911D42E0660FA1
:1002F000771F881F991F4A95D1F70895AC0130E008
:1003000020E0FB01A191B191BF01BB27FD01E85D98
:10031000FE4F8491FD01E851FE4F9491AE55BE4FC2
:10032000FD01A491AA2309F43CC0882311F1815056
:100330008231F8F4E82FF0E08827EE55FE4F8F4F1A
:100340000C94CD03E001E401B401D801DC01B90152
:10035000E701ED01F101F701FB01FF0105020902CF
:10036000B9010D0213021702809180008F778093EC
:100370008000EA2FF0E0EE0FFF1FE259FE4FA5913B
:10038000B4918FB7F894FA01022E02C0F595E79563
:100390000A94E2F7E0FD4FC0EC9190959E239C9368
:1003A0008FBF2F5F3F4F2430310509F0AACF08954A
:1003B000809180008F7DDBCF80918000877FD7CFB9
:1003C00084B58F7784BDD5CF84B58F7DFBCF8091E9
:1003D000B0008F778093B000CCCF8091B0008F7D3C
:1003E000F9CF809190008F7780939000C2CF809159
:1003F00090008F7DF9CF80919000877FF5CF80911D
:10040000A0008F778093A000B4CF8091A0008F7D53
:10041000F9CF8091A000877FF5CF809120018F7761
:1004200080932001A6CF809120018F7DF9CF80910C
:100430002001877FF5CFEC919E2BB1CF0F931F93B7
:10044000CF93DF938091340290913502CAE0D0E0DF
:10045000BE010E94B9038B0168E272E00E947E0136
:1004600060E272E0C8010E947E01809132029091A8
:100470003302BE010E94B9038B0168E172E00E9461
:100480007E0160E172E0C8010E947E01809130022D
:1004900090913102BE010E94B903EB0168E072E065
:1004A0000E947E0160E072E0CE01DF91CF911F914A
:1004B0000F910C947E011F920F920FB60F92112490
:1004C0002F933F938F939F93AF93BF938091370266
:1004D00090913802A0913902B0913A0230913602DF
:1004E00023E0230F2D3758F50196A11DB11D209350
:1004F00036028093370290933802A0933902B0936A
:100500003A0280913B0290913C02A0913D02B09151
:100510003E020196A11DB11D80933B0290933C02C7
:10052000A0933D02B0933E02BF91AF919F918F91F6
:100530003F912F910F900FBE0F901F90189526E8B6
:10054000230F0296A11DB11DD2CF789484B582608D
:1005500084BD84B5816084BD85B5826085BD85B567
:10056000816085BD80916E00816080936E001092E5
:100570008100809181008260809381008091810060
:1005800081608093810080918000816080938000F1
:100590008091B10084608093B1008091B00081604F
:1005A0008093B0008091910082608093910080914F
:1005B0009100816080939100809190008160809390
:1005C00090008091A10082608093A1008091A100A1
:1005D00081608093A1008091A00081608093A00041
:1005E00080912101826080932101809121018160AD
:1005F000809321018091200181608093200180916E
:100600007A00846080937A0080917A00826080937F
:100610007A0080917A00816080937A0080917A00DC
:10062000806880937A001092C10098E2892E92E04F
:10063000992E20E2A22E22E0B22E38E1C32E32E023
:10064000D32E40E1E42E42E0F42E08E012E0C0E0B8
:10065000D2E0F4018081F2E08F0E911C0E943A01F9
:10066000F5018081F2E0AF0EB11C0E943A01F60163
:100670008081F2E0CF0ED11C0E943A01F701808107
:10068000F2E0EF0EF11C0E943A01F80180810E5F4A
:100690001F4F0E943A01888122960E943A01F0E39E
:1006A0008F16F2E09F06A9F60E941E02C0E0D0E07D
:1006B0000E9459014B015C018AEFC82ED12CE12C1C
:1006C000F12C0E945901681979098A099B09683E31
:1006D000734081059105A8F321E0C21AD108E10811
:1006E000F10888EE880E83E0981EA11CB11CC1148D
:1006F000D104E104F10429F780913402909135028C
:1007000001969093350280933402CC9769F48091DE
:100710003202909133021092350210923402019607
:10072000909333028093320280913202909133028F
:10073000CC9769F48091300290913102109233028B
:100740001092320201969093310280933002809190
:10075000300290913102489721F4109231021092A8
:1007600030020E941E02209709F4A2CF0E940000CE
:100770009FCF97FB072E16F4009407D077FD09D082
:100780000E94D50307FC05D03EF4909581959F4FBC
:100790000895709561957F4F0895EE0FFF1F881F94
:1007A0008BBF0790F691E02D1994AA1BBB1B51E15A
:1007B00007C0AA1FBB1FA617B70710F0A61BB70BD1
:1007C000881F991F5A95A9F780959095BC01CD0176
:0607D0000895F894FFCF2C
:1007D600210020001F001E00250024002300220007
:1007E60029002800270026002D002C002B002A00B7
:1007F600310030002F002E00350034003300320067
:060806000C00220032008C
:00000001FF
