:100000000C945C000C9479000C9479000C947900A9
:100010000C9479000C9479000C9479000C9479007C
:100020000C9479000C9479000C9479000C9479006C
:100030000C9479000C9479000C9479000C9479005C
:100040000C940C010C9479000C9479000C947900B8
:100050000C9479000C9479000C9479000C9479003C
:100060000C9479000C947900000000080002010053
:100070000003040700000000000000000000000072
:10008000250028002B0000000000240027002A0083
:10009000040404040404040402020202020203032E
:1000A0000303030301020408102040800102040836
:1000B000102001020408102011241FBECFEFD8E049
:1000C000DEBFCDBF11E0A0E0B1E0EAE7F4E002C09E
:1000D00005900D92A831B107D9F721E0A8E1B1E070
:1000E00001C01D92A832B207E1F70E9456010C949C
:1000F0003B020C94000090E0FC01EC55FF4F249172
:1001000080579F4FFC018491882399F090E0880FDD
:10011000991FFC01EA57FF4FA591B491FC01E458E7
:10012000FF4F859194918FB7F894EC91E22BEC936B
:100130008FBF0895CF93DF93582F492F862F6AE002
:100140000E942F0260E1869F90011124922BA52F1F
:10015000B42F50E040E0292F30E08D918F3F79F1AE
:1001600090E0FC01E859FF4F7491FC01EC55FF4F02
:100170006491FC01E057FF4FE491EE2301F17723F6
:1001800039F0733079F120F5713091F17230A1F1CD
:10019000F0E0EE0FFF1FE458FF4FC591D4918FB7E9
:1001A000F894F901042E02C0F595E7950A94E2F758
:1001B000E0FD2FC0E88160956E2368838FBF4F5F9D
:1001C0005F4F4830510509F0C8CFDF91CF910895B6
:1001D0007730A9F07830C9F07430D1F68091800082
:1001E0008F7D03C0809180008F7780938000D0CF77
:1001F00084B58F7784BDCCCF84B58F7DFBCF8091C4
:10020000B0008F778093B000C3CF8091B0008F7D16
:10021000F9CFE8816E2BD1CF1F920F920FB60F92BC
:1002200011242F933F938F939F93AF93BF9380910C
:10023000240190912501A0912601B09127013091D0
:10024000230123E0230F2D3758F50196A11DB11D81
:10025000209323018093240190932501A0932601EC
:10026000B093270180911F0190912001A09121015D
:10027000B09122010196A11DB11D80931F019093A1
:100280002001A0932101B0932201BF91AF919F91D2
:100290008F913F912F910F900FBE0F901F90189547
:1002A00026E8230F0296A11DB11DD2CF789484B504
:1002B000826084BD84B5816084BD85B5826085BD62
:1002C00085B5816085BD80916E00816080936E00F0
:1002D00010928100809181008260809381008091E2
:1002E0008100816080938100809180008160809393
:1002F00080008091B10084608093B1008091B00053
:1003000081608093B00080917A00846080937A004D
:1003100080917A00826080937A0080917A00816077
:1003200080937A0080917A00806880937A0010929E
:10033000C100C0E0D1E000E111E088E0E82E81E0FA
:10034000F82E89918F3F11F00E947B00F701819177
:100350007F018F3F11F00E947B00F80181918F0196
:100360008F3F11F00E947B00F1E0C830DF0749F7B2
:100370008CE08093180182E28093190182E38093DC
:100380001A016CE080E091E00E949A0062E288E04D
:1003900091E00E949A0062E380E191E00E949A005D
:1003A000C0E0D0E08FB7F89440912401509125012E
:1003B00060912601709127018FBF80911B01909160
:1003C0001C01A0911D01B0911E01481B590B6A0B25
:1003D0007B0B483E53406105710580F188519C4F6D
:1003E000AF4FBF4F80931B0190931C01A0931D0141
:1003F000B0931E0180911A018F5F80931A018C3394
:1004000058F0909119018091180110921A019F5F84
:100410009C33D0F49093190160911A0180E191E02E
:100420000E949A006091190188E091E00E949A0070
:100430006091180180E091E00E949A00209709F4F1
:10044000B1CF0E940000AECF109219018F5F8831AA
:1004500018F480931801E0CF10921801DDCF991B9A
:1004600079E004C0991F961708F0961B881F7A95AB
:0A047000C9F780950895F894FFCFB6
:10047A0027262524232221202F2E2D2C2B2A2928FA
:08048A00353433323130FFFF3D
:00000001FF
