:020000040000FA
:100000000C9461000C947E000C947E000C947E0095
:100010000C947E000C947E000C947E000C947E0068
:100020000C947E000C947E000C947E000C947E0058
:100030000C947E000C947E000C947E000C947E0048
:100040000C94A5000C947E000C947E000C947E0011
:100050000C947E000C947E000C947E000C947E0028
:100060000C947E000C947E00000000002500280007
:100070002B0000000000240027002A0000000000E0
:1000800023002600290004040404040404040202DA
:100090000202020203030303030301020408102007
:1000A0004080010204081020010204081020000012
:1000B0000008000201000003040700000000000027
:1000C000000011241FBECFEFD8E0DEBFCDBF11E08E
:1000D000A0E0B1E0ECEFF4E002C005900D92A23098
:1000E000B107D9F721E0A2E0B1E001C01D92A23131
:1000F000B207E1F70E94EF000C947C020C94000020
:100100003FB7F89480910E0190910F01A0911001DA
:10011000B091110126B5A89B05C02F3F19F001969B
:10012000A11DB11D3FBFBA2FA92F982F8827BC0151
:10013000CD01620F711D811D911D42E0660F771F79
:10014000881F991F4A95D1F708951F920F920FB6F5
:100150000F9211242F933F938F939F93AF93BF934D
:1001600080910A0190910B01A0910C01B0910D01B9
:100170003091090123E0230F2D3758F50196A11D79
:10018000B11D2093090180930A0190930B01A09364
:100190000C01B0930D0180910E0190910F01A0917F
:1001A0001001B09111010196A11DB11D80930E01A6
:1001B00090930F01A0931001B0931101BF91AF91E3
:1001C0009F918F913F912F910F900FBE0F901F9095
:1001D000189526E8230F0296A11DB11DD2CF789461
:1001E00084B5826084BD84B5816084BD85B582603C
:1001F00085BD85B5816085BD80916E0081608093ED
:100200006E00109281008091810082608093810055
:100210008091810081608093810080918000816065
:10022000809380008091B10084608093B1008091C0
:10023000B00081608093B00080917A0084608093E8
:100240007A0080917A00826080937A0080917A00AF
:10025000816080937A0080917A00806880937A0030
:100260001092C10030E020E0F901E656FF4F4491C2
:10027000F901EA57FF4F8491882399F090E0880FA5
:10028000991FFC01EE58FF4FA591B491FC01E8596C
:10029000FF4F859194918FB7F894EC91E42BEC93F8
:1002A0008FBF2F5F3F4F2D303105F1F65BEA252ED2
:1002B00050E0352EF101249167E9862E60E0962EFC
:1002C000F40184918823C1F090E0880F991FFC010C
:1002D000EE58FF4FA591B491FC01E859FF4FC5912D
:1002E000D4919FB7F8943C91822F809583238C936F
:1002F0008881282B28839FBF04E610E0CAE0D0E065
:1003000030E0A32E30E0B32EEFEBF0E08491F1016A
:100310009491F4012491211173C080910101811104
:10032000A7C080E0809301012FB7F89480910A0163
:1003300090910B01A0910C01B0910D012FBF409144
:100340000301509104016091050170910601841B25
:10035000950BA60BB70B80399140A105B10548F16B
:100360002FB7F89480910A0190910B01A0910C0194
:10037000B0910D012FBF8093030190930401A093CE
:100380000501B09306018091070190910801029642
:1003900090930801809307018F3F910551F048F039
:1003A0008091000121E0822790E0909308018093E2
:1003B0000701E0910701F0910801CF01B8010E9407
:1003C000680260930201BE010E9468029B0184E002
:1003D000220F331F8A95E1F7CF01BE010E94680208
:1003E000282B2BB995B1809102018F70907F892BBA
:1003F00085B9A114B10409F487CF0E94000084CF0D
:10040000882339F08330E9F090F4813001F18230B3
:1004100011F1E22FF0E0EE0FFF1FE458FF4FA5911E
:10042000B4918C91982309F478CF81E07BCF873009
:10043000A9F08830C9F0843061F7809180008F7D09
:1004400003C0809180008F7780938000E2CF84B5D5
:100450008F7784BDDECF84B58F7DFBCF8091B000D8
:100460008F778093B000D5CF8091B0008F7DF9CF8A
:100470008091000191E098279093000190E0909383
:100480000801809307010E9480002B013C0194E148
:10049000C92ED12CE12CF12C0E9480006419750921
:1004A00086099709683E734081059105A8F3F1E03C
:1004B000CF1AD108E108F10828EE420E23E0521EBF
:1004C000611C711CC114D104E104F10429F729CF86
:1004D000AA1BBB1B51E107C0AA1FBB1FA617B7076A
:1004E00010F0A61BB70B881F991F5A95A9F7809586
:0E04F0009095BC01CD010895F894FFCF010155
:107E0000112484B714BE81FFF0D085E080938100F7
:107E100082E08093C00088E18093C10086E0809377
:107E2000C20080E18093C4008EE0C9D0259A86E02C
:107E300020E33CEF91E0309385002093840096BBD3
:107E4000B09BFECF1D9AA8958150A9F7CC24DD24C4
:107E500088248394B5E0AB2EA1E19A2EF3E0BF2EE7
:107E6000A2D0813461F49FD0082FAFD0023811F036
:107E7000013811F484E001C083E08DD089C08234E0
:107E800011F484E103C0853419F485E0A6D080C0E4
:107E9000853579F488D0E82EFF2485D0082F10E0AE
:107EA000102F00270E291F29000F111F8ED06801E7
:107EB0006FC0863521F484E090D080E0DECF843638
:107EC00009F040C070D06FD0082F6DD080E0C81688
:107ED00080E7D80618F4F601B7BEE895C0E0D1E017
:107EE00062D089930C17E1F7F0E0CF16F0E7DF06D8
:107EF00018F0F601B7BEE89568D007B600FCFDCFD4
:107F0000A601A0E0B1E02C9130E011968C91119780
:107F100090E0982F8827822B932B1296FA010C0160
:107F200087BEE89511244E5F5F4FF1E0A038BF0790
:107F300051F7F601A7BEE89507B600FCFDCF97BE46
:107F4000E89526C08437B1F42ED02DD0F82E2BD052
:107F50003CD0F601EF2C8F010F5F1F4F84911BD097
:107F6000EA94F801C1F70894C11CD11CFA94CF0C13
:107F7000D11C0EC0853739F428D08EE10CD085E9AC
:107F80000AD08FE07ACF813511F488E018D01DD067
:107F900080E101D065CF982F8091C00085FFFCCF94
:107FA0009093C60008958091C00087FFFCCF809118
:107FB000C00084FD01C0A8958091C6000895E0E648
:107FC000F0E098E1908380830895EDDF803219F02E
:107FD00088E0F5DFFFCF84E1DECF1F93182FE3DFCA
:107FE0001150E9F7F2DF1F91089580E0E8DFEE27F6
:047FF000FF270994CA
:027FFE00040479
:00000001FF
